{
  "_format": "hh3-artifact-1",
  "contractName": "C3",
  "sourceName": "contracts/C3.sol",
  "abi": [
    {
      "inputs": [
        {
          "internalType": "address",
          "name": "_tokenA",
          "type": "address"
        },
        {
          "internalType": "address",
          "name": "_tokenB",
          "type": "address"
        },
        {
          "internalType": "address",
          "name": "_flashLoanPool",
          "type": "address"
        },
        {
          "internalType": "address",
          "name": "_dex",
          "type": "address"
        },
        {
          "internalType": "address",
          "name": "_rebalancer",
          "type": "address"
        }
      ],
      "stateMutability": "nonpayable",
      "type": "constructor"
    },
    {
      "inputs": [],
      "name": "dex",
      "outputs": [
        {
          "internalType": "contract SimpleDEX",
          "name": "",
          "type": "address"
        }
      ],
      "stateMutability": "view",
      "type": "function"
    },
    {
      "inputs": [],
      "name": "flashLoanPool",
      "outputs": [
        {
          "internalType": "contract FlashLoanPool",
          "name": "",
          "type": "address"
        }
      ],
      "stateMutability": "view",
      "type": "function"
    },
    {
      "inputs": [
        {
          "internalType": "address",
          "name": "token",
          "type": "address"
        },
        {
          "internalType": "uint256",
          "name": "amount",
          "type": "uint256"
        },
        {
          "internalType": "bytes",
          "name": "data",
          "type": "bytes"
        }
      ],
      "name": "onFlashLoan",
      "outputs": [],
      "stateMutability": "nonpayable",
      "type": "function"
    },
    {
      "inputs": [],
      "name": "rebalanceAttack",
      "outputs": [],
      "stateMutability": "nonpayable",
      "type": "function"
    },
    {
      "inputs": [],
      "name": "rebalancer",
      "outputs": [
        {
          "internalType": "contract VulnerableRebalancer",
          "name": "",
          "type": "address"
        }
      ],
      "stateMutability": "view",
      "type": "function"
    },
    {
      "inputs": [],
      "name": "tokenA",
      "outputs": [
        {
          "internalType": "contract IERC20",
          "name": "",
          "type": "address"
        }
      ],
      "stateMutability": "view",
      "type": "function"
    },
    {
      "inputs": [],
      "name": "tokenB",
      "outputs": [
        {
          "internalType": "contract IERC20",
          "name": "",
          "type": "address"
        }
      ],
      "stateMutability": "view",
      "type": "function"
    }
  ],
  "bytecode": "0x608060405234801561000f575f5ffd5b506040516108fe3803806108fe83398101604081905261002e916100aa565b5f80546001600160a01b03199081166001600160a01b0397881617909155600180548216958716959095179094556002805485169386169390931790925560038054841691851691909117905560048054909216921691909117905561010b565b80516001600160a01b03811681146100a5575f5ffd5b919050565b5f5f5f5f5f60a086880312156100be575f5ffd5b6100c78661008f565b94506100d56020870161008f565b93506100e36040870161008f565b92506100f16060870161008f565b91506100ff6080870161008f565b90509295509295909350565b6107e6806101185f395ff3fe608060405234801561000f575f5ffd5b506004361061007a575f3560e01c80635f64b55b116100585780635f64b55b146100d4578063692058c2146100e75780637a59e89a146100fa578063b1099daf14610102575f5ffd5b806301d22ccd1461007e5780630fc63d10146100ad5780634963710d146100bf575b5f5ffd5b600454610091906001600160a01b031681565b6040516001600160a01b03909116815260200160405180910390f35b5f54610091906001600160a01b031681565b6100d26100cd36600461069b565b610115565b005b600154610091906001600160a01b031681565b600354610091906001600160a01b031681565b6100d2610591565b600254610091906001600160a01b031681565b5f5460035460405163095ea7b360e01b81526001600160a01b0391821660048201526024810186905291169063095ea7b3906044016020604051808303815f875af1158015610166573d5f5f3e3d5ffd5b505050506040513d601f19601f8201168201806040525081019061018a919061072b565b506003545f5460405163d004f0f760e01b81526001600160a01b0391821660048201526024810186905291169063d004f0f7906044015f604051808303815f87803b1580156101d7575f5ffd5b505af11580156101e9573d5f5f3e3d5ffd5b505050505f60045f9054906101000a90046001600160a01b03166001600160a01b03166395529ba76040518163ffffffff1660e01b8152600401602060405180830381865afa15801561023e573d5f5f3e3d5ffd5b505050506040513d601f19601f820116820180604052508101906102629190610751565b90505f670de0b6b3a764000060045f9054906101000a90046001600160a01b03166001600160a01b03166398d5fdca6040518163ffffffff1660e01b8152600401602060405180830381865afa1580156102be573d5f5f3e3d5ffd5b505050506040513d601f19601f820116820180604052508101906102e29190610751565b6102ec9084610768565b6102f69190610791565b6001546004805460405163095ea7b360e01b81526001600160a01b03918216928101929092526024820184905292935091169063095ea7b3906044016020604051808303815f875af115801561034e573d5f5f3e3d5ffd5b505050506040513d601f19601f82011682018060405250810190610372919061072b565b5060048054604051631cc3349360e31b81529182018390526001600160a01b03169063e619a498906024015f604051808303815f87803b1580156103b4575f5ffd5b505af11580156103c6573d5f5f3e3d5ffd5b50506001546040516370a0823160e01b81523060048201525f93506001600160a01b0390911691506370a0823190602401602060405180830381865afa158015610412573d5f5f3e3d5ffd5b505050506040513d601f19601f820116820180604052508101906104369190610751565b60015460035460405163095ea7b360e01b81526001600160a01b03918216600482015260248101849052929350169063095ea7b3906044016020604051808303815f875af115801561048a573d5f5f3e3d5ffd5b505050506040513d601f19601f820116820180604052508101906104ae919061072b565b5060035460015460405163d004f0f760e01b81526001600160a01b0391821660048201526024810184905291169063d004f0f7906044015f604051808303815f87803b1580156104fc575f5ffd5b505af115801561050e573d5f5f3e3d5ffd5b50505f5460025460405163a9059cbb60e01b81526001600160a01b039182166004820152602481018b90529116925063a9059cbb91506044016020604051808303815f875af1158015610563573d5f5f3e3d5ffd5b505050506040513d601f19601f82011682018060405250810190610587919061072b565b5050505050505050565b5f80546002546040516370a0823160e01b81526001600160a01b0391821660048201529116906370a0823190602401602060405180830381865afa1580156105db573d5f5f3e3d5ffd5b505050506040513d601f19601f820116820180604052508101906105ff9190610751565b90505f606461060f836050610768565b6106199190610791565b6002545f5460405163701195a160e11b81526001600160a01b0391821660048201526024810184905260606044820152600360648201526203078360ec1b6084820152929350169063e0232b429060a4015f604051808303815f87803b158015610681575f5ffd5b505af1158015610693573d5f5f3e3d5ffd5b505050505050565b5f5f5f5f606085870312156106ae575f5ffd5b84356001600160a01b03811681146106c4575f5ffd5b935060208501359250604085013567ffffffffffffffff8111156106e6575f5ffd5b8501601f810187136106f6575f5ffd5b803567ffffffffffffffff81111561070c575f5ffd5b87602082840101111561071d575f5ffd5b949793965060200194505050565b5f6020828403121561073b575f5ffd5b8151801515811461074a575f5ffd5b9392505050565b5f60208284031215610761575f5ffd5b5051919050565b808202811582820484141761078b57634e487b7160e01b5f52601160045260245ffd5b92915050565b5f826107ab57634e487b7160e01b5f52601260045260245ffd5b50049056fea2646970667358221220f7639b8aad88659454033436ddc025662e29ccb2cb9695d9ab06505083a2cab864736f6c634300081c0033",
  "linkReferences": {},
  "deployedLinkReferences": {},
  "immutableReferences": {},
  "inputSourceName": "project/contracts/C3.sol",
  "buildInfoId": "solc-0_8_28-4d6c4cf2d821facd5c8aced5a98e12521f996962"
}