{
  "_format": "hh3-artifact-1",
  "contractName": "MyToken",
  "sourceName": "contracts/MyToken.sol",
  "abi": [
    {
      "inputs": [],
      "stateMutability": "nonpayable",
      "type": "constructor"
    },
    {
      "inputs": [],
      "name": "ECDSAInvalidSignature",
      "type": "error"
    },
    {
      "inputs": [
        {
          "internalType": "uint256",
          "name": "length",
          "type": "uint256"
        }
      ],
      "name": "ECDSAInvalidSignatureLength",
      "type": "error"
    },
    {
      "inputs": [
        {
          "internalType": "bytes32",
          "name": "s",
          "type": "bytes32"
        }
      ],
      "name": "ECDSAInvalidSignatureS",
      "type": "error"
    },
    {
      "inputs": [
        {
          "internalType": "address",
          "name": "spender",
          "type": "address"
        },
        {
          "internalType": "uint256",
          "name": "allowance",
          "type": "uint256"
        },
        {
          "internalType": "uint256",
          "name": "needed",
          "type": "uint256"
        }
      ],
      "name": "ERC20InsufficientAllowance",
      "type": "error"
    },
    {
      "inputs": [
        {
          "internalType": "address",
          "name": "sender",
          "type": "address"
        },
        {
          "internalType": "uint256",
          "name": "balance",
          "type": "uint256"
        },
        {
          "internalType": "uint256",
          "name": "needed",
          "type": "uint256"
        }
      ],
      "name": "ERC20InsufficientBalance",
      "type": "error"
    },
    {
      "inputs": [
        {
          "internalType": "address",
          "name": "approver",
          "type": "address"
        }
      ],
      "name": "ERC20InvalidApprover",
      "type": "error"
    },
    {
      "inputs": [
        {
          "internalType": "address",
          "name": "receiver",
          "type": "address"
        }
      ],
      "name": "ERC20InvalidReceiver",
      "type": "error"
    },
    {
      "inputs": [
        {
          "internalType": "address",
          "name": "sender",
          "type": "address"
        }
      ],
      "name": "ERC20InvalidSender",
      "type": "error"
    },
    {
      "inputs": [
        {
          "internalType": "address",
          "name": "spender",
          "type": "address"
        }
      ],
      "name": "ERC20InvalidSpender",
      "type": "error"
    },
    {
      "anonymous": false,
      "inputs": [
        {
          "indexed": true,
          "internalType": "address",
          "name": "owner",
          "type": "address"
        },
        {
          "indexed": true,
          "internalType": "address",
          "name": "spender",
          "type": "address"
        },
        {
          "indexed": false,
          "internalType": "uint256",
          "name": "value",
          "type": "uint256"
        }
      ],
      "name": "Approval",
      "type": "event"
    },
    {
      "anonymous": false,
      "inputs": [
        {
          "indexed": true,
          "internalType": "address",
          "name": "from",
          "type": "address"
        },
        {
          "indexed": true,
          "internalType": "address",
          "name": "to",
          "type": "address"
        },
        {
          "indexed": false,
          "internalType": "uint256",
          "name": "value",
          "type": "uint256"
        }
      ],
      "name": "Transfer",
      "type": "event"
    },
    {
      "inputs": [
        {
          "internalType": "address",
          "name": "owner",
          "type": "address"
        },
        {
          "internalType": "address",
          "name": "spender",
          "type": "address"
        }
      ],
      "name": "allowance",
      "outputs": [
        {
          "internalType": "uint256",
          "name": "",
          "type": "uint256"
        }
      ],
      "stateMutability": "view",
      "type": "function"
    },
    {
      "inputs": [
        {
          "internalType": "address",
          "name": "spender",
          "type": "address"
        },
        {
          "internalType": "uint256",
          "name": "value",
          "type": "uint256"
        }
      ],
      "name": "approve",
      "outputs": [
        {
          "internalType": "bool",
          "name": "",
          "type": "bool"
        }
      ],
      "stateMutability": "nonpayable",
      "type": "function"
    },
    {
      "inputs": [
        {
          "internalType": "address",
          "name": "account",
          "type": "address"
        }
      ],
      "name": "balanceOf",
      "outputs": [
        {
          "internalType": "uint256",
          "name": "",
          "type": "uint256"
        }
      ],
      "stateMutability": "view",
      "type": "function"
    },
    {
      "inputs": [],
      "name": "decimals",
      "outputs": [
        {
          "internalType": "uint8",
          "name": "",
          "type": "uint8"
        }
      ],
      "stateMutability": "view",
      "type": "function"
    },
    {
      "inputs": [],
      "name": "name",
      "outputs": [
        {
          "internalType": "string",
          "name": "",
          "type": "string"
        }
      ],
      "stateMutability": "view",
      "type": "function"
    },
    {
      "inputs": [
        {
          "internalType": "address",
          "name": "",
          "type": "address"
        }
      ],
      "name": "nonces",
      "outputs": [
        {
          "internalType": "uint256",
          "name": "",
          "type": "uint256"
        }
      ],
      "stateMutability": "view",
      "type": "function"
    },
    {
      "inputs": [
        {
          "internalType": "address",
          "name": "owner",
          "type": "address"
        },
        {
          "internalType": "address",
          "name": "spender",
          "type": "address"
        },
        {
          "internalType": "uint256",
          "name": "value",
          "type": "uint256"
        },
        {
          "internalType": "uint256",
          "name": "nonce",
          "type": "uint256"
        },
        {
          "internalType": "uint256",
          "name": "deadline",
          "type": "uint256"
        },
        {
          "internalType": "bytes",
          "name": "signature",
          "type": "bytes"
        }
      ],
      "name": "permit",
      "outputs": [],
      "stateMutability": "nonpayable",
      "type": "function"
    },
    {
      "inputs": [],
      "name": "symbol",
      "outputs": [
        {
          "internalType": "string",
          "name": "",
          "type": "string"
        }
      ],
      "stateMutability": "view",
      "type": "function"
    },
    {
      "inputs": [],
      "name": "totalSupply",
      "outputs": [
        {
          "internalType": "uint256",
          "name": "",
          "type": "uint256"
        }
      ],
      "stateMutability": "view",
      "type": "function"
    },
    {
      "inputs": [
        {
          "internalType": "address",
          "name": "to",
          "type": "address"
        },
        {
          "internalType": "uint256",
          "name": "value",
          "type": "uint256"
        }
      ],
      "name": "transfer",
      "outputs": [
        {
          "internalType": "bool",
          "name": "",
          "type": "bool"
        }
      ],
      "stateMutability": "nonpayable",
      "type": "function"
    },
    {
      "inputs": [
        {
          "internalType": "address",
          "name": "from",
          "type": "address"
        },
        {
          "internalType": "address",
          "name": "to",
          "type": "address"
        },
        {
          "internalType": "uint256",
          "name": "value",
          "type": "uint256"
        }
      ],
      "name": "transferFrom",
      "outputs": [
        {
          "internalType": "bool",
          "name": "",
          "type": "bool"
        }
      ],
      "stateMutability": "nonpayable",
      "type": "function"
    }
  ],
  "bytecode": "0x608060405234801561000f575f5ffd5b506040518060400160405280600781526020016626bcaa37b5b2b760c91b81525060405180604001604052806002815260200161135560f21b815250816003908161005a919061029f565b506004610067828261029f565b50505061009a3361007c61009f60201b60201c565b61008790600a610452565b610095906305f5e100610467565b6100a4565b610491565b601290565b6001600160a01b0382166100d25760405163ec442f0560e01b81525f60048201526024015b60405180910390fd5b6100dd5f83836100e1565b5050565b6001600160a01b03831661010b578060025f828254610100919061047e565b9091555061017b9050565b6001600160a01b0383165f908152602081905260409020548181101561015d5760405163391434e360e21b81526001600160a01b038516600482015260248101829052604481018390526064016100c9565b6001600160a01b0384165f9081526020819052604090209082900390555b6001600160a01b038216610197576002805482900390556101b5565b6001600160a01b0382165f9081526020819052604090208054820190555b816001600160a01b0316836001600160a01b03167fddf252ad1be2c89b69c2b068fc378daa952ba7f163c4a11628f55a4df523b3ef836040516101fa91815260200190565b60405180910390a3505050565b634e487b7160e01b5f52604160045260245ffd5b600181811c9082168061022f57607f821691505b60208210810361024d57634e487b7160e01b5f52602260045260245ffd5b50919050565b601f82111561029a57805f5260205f20601f840160051c810160208510156102785750805b601f840160051c820191505b81811015610297575f8155600101610284565b50505b505050565b81516001600160401b038111156102b8576102b8610207565b6102cc816102c6845461021b565b84610253565b6020601f8211600181146102fe575f83156102e75750848201515b5f19600385901b1c1916600184901b178455610297565b5f84815260208120601f198516915b8281101561032d578785015182556020948501946001909201910161030d565b508482101561034a57868401515f19600387901b60f8161c191681555b50505050600190811b01905550565b634e487b7160e01b5f52601160045260245ffd5b6001815b60018411156103a85780850481111561038c5761038c610359565b600184161561039a57908102905b60019390931c928002610371565b935093915050565b5f826103be5750600161044c565b816103ca57505f61044c565b81600181146103e057600281146103ea57610406565b600191505061044c565b60ff8411156103fb576103fb610359565b50506001821b61044c565b5060208310610133831016604e8410600b8410161715610429575081810a61044c565b6104355f19848461036d565b805f190482111561044857610448610359565b0290505b92915050565b5f61046060ff8416836103b0565b9392505050565b808202811582820484141761044c5761044c610359565b8082018082111561044c5761044c610359565b610c228061049e5f395ff3fe608060405234801561000f575f5ffd5b50600436106100a6575f3560e01c80634f6be2b71161006e5780634f6be2b71461011f57806370a08231146101345780637ecebe001461015c57806395d89b411461017b578063a9059cbb14610183578063dd62ed3e14610196575f5ffd5b806306fdde03146100aa578063095ea7b3146100c857806318160ddd146100eb57806323b872dd146100fd578063313ce56714610110575b5f5ffd5b6100b26101ce565b6040516100bf919061095c565b60405180910390f35b6100db6100d63660046109ac565b61025e565b60405190151581526020016100bf565b6002545b6040519081526020016100bf565b6100db61010b3660046109d4565b610277565b604051601281526020016100bf565b61013261012d366004610a22565b61029a565b005b6100ef610142366004610b10565b6001600160a01b03165f9081526020819052604090205490565b6100ef61016a366004610b10565b60056020525f908152604090205481565b6100b2610468565b6100db6101913660046109ac565b610477565b6100ef6101a4366004610b30565b6001600160a01b039182165f90815260016020908152604080832093909416825291909152205490565b6060600380546101dd90610b61565b80601f016020809104026020016040519081016040528092919081815260200182805461020990610b61565b80156102545780601f1061022b57610100808354040283529160200191610254565b820191905f5260205f20905b81548152906001019060200180831161023757829003601f168201915b5050505050905090565b5f3361026b818585610484565b60019150505b92915050565b5f33610284858285610496565b61028f858585610512565b506001949350505050565b814211156102d95760405162461bcd60e51b8152602060048201526007602482015266195e1c1a5c995960ca1b60448201526064015b60405180910390fd5b6001600160a01b0386165f90815260056020526040902054831461032d5760405162461bcd60e51b815260206004820152600b60248201526a77726f6e67206e6f6e636560a81b60448201526064016102d0565b6001600160a01b0386165f90815260056020526040812080549161035083610bad565b90915550506040516bffffffffffffffffffffffff19606088811b8216602084015287811b8216603484015260488301879052606883018690526088830185905230901b1660a88201525f9060bc016040516020818303038152906040528051906020012090505f6103ee827f19457468657265756d205369676e6564204d6573736167653a0a3332000000005f908152601c91909152603c902090565b90505f6103fb828561056f565b9050886001600160a01b0316816001600160a01b0316146104525760405162461bcd60e51b8152602060048201526011602482015270696e76616c6964207369676e617475726560781b60448201526064016102d0565b61045d898989610484565b505050505050505050565b6060600480546101dd90610b61565b5f3361026b818585610512565b6104918383836001610597565b505050565b6001600160a01b038381165f908152600160209081526040808320938616835292905220545f1981101561050c57818110156104fe57604051637dc7a0d960e11b81526001600160a01b038416600482015260248101829052604481018390526064016102d0565b61050c84848484035f610597565b50505050565b6001600160a01b03831661053b57604051634b637e8f60e11b81525f60048201526024016102d0565b6001600160a01b0382166105645760405163ec442f0560e01b81525f60048201526024016102d0565b610491838383610669565b5f5f5f5f61057d868661078f565b92509250925061058d82826107d8565b5090949350505050565b6001600160a01b0384166105c05760405163e602df0560e01b81525f60048201526024016102d0565b6001600160a01b0383166105e957604051634a1406b160e11b81525f60048201526024016102d0565b6001600160a01b038085165f908152600160209081526040808320938716835292905220829055801561050c57826001600160a01b0316846001600160a01b03167f8c5be1e5ebec7d5bd14f71427d1e84f3dd0314c0f7b2291e5b200ac8c7c3b9258460405161065b91815260200190565b60405180910390a350505050565b6001600160a01b038316610693578060025f8282546106889190610bc5565b909155506107039050565b6001600160a01b0383165f90815260208190526040902054818110156106e55760405163391434e360e21b81526001600160a01b038516600482015260248101829052604481018390526064016102d0565b6001600160a01b0384165f9081526020819052604090209082900390555b6001600160a01b03821661071f5760028054829003905561073d565b6001600160a01b0382165f9081526020819052604090208054820190555b816001600160a01b0316836001600160a01b03167fddf252ad1be2c89b69c2b068fc378daa952ba7f163c4a11628f55a4df523b3ef8360405161078291815260200190565b60405180910390a3505050565b5f5f5f83516041036107c6576020840151604085015160608601515f1a6107b888828585610894565b9550955095505050506107d1565b505081515f91506002905b9250925092565b5f8260038111156107eb576107eb610bd8565b036107f4575050565b600182600381111561080857610808610bd8565b036108265760405163f645eedf60e01b815260040160405180910390fd5b600282600381111561083a5761083a610bd8565b0361085b5760405163fce698f760e01b8152600481018290526024016102d0565b600382600381111561086f5761086f610bd8565b03610890576040516335e2f38360e21b8152600481018290526024016102d0565b5050565b5f80807f7fffffffffffffffffffffffffffffff5d576e7357a4501ddfe92f46681b20a08411156108cd57505f91506003905082610952565b604080515f808252602082018084528a905260ff891692820192909252606081018790526080810186905260019060a0016020604051602081039080840390855afa15801561091e573d5f5f3e3d5ffd5b5050604051601f1901519150506001600160a01b03811661094957505f925060019150829050610952565b92505f91508190505b9450945094915050565b602081525f82518060208401528060208501604085015e5f604082850101526040601f19601f83011684010191505092915050565b80356001600160a01b03811681146109a7575f5ffd5b919050565b5f5f604083850312156109bd575f5ffd5b6109c683610991565b946020939093013593505050565b5f5f5f606084860312156109e6575f5ffd5b6109ef84610991565b92506109fd60208501610991565b929592945050506040919091013590565b634e487b7160e01b5f52604160045260245ffd5b5f5f5f5f5f5f60c08789031215610a37575f5ffd5b610a4087610991565b9550610a4e60208801610991565b945060408701359350606087013592506080870135915060a087013567ffffffffffffffff811115610a7e575f5ffd5b8701601f81018913610a8e575f5ffd5b803567ffffffffffffffff811115610aa857610aa8610a0e565b604051601f8201601f19908116603f0116810167ffffffffffffffff81118282101715610ad757610ad7610a0e565b6040528181528282016020018b1015610aee575f5ffd5b816020840160208301375f602083830101528093505050509295509295509295565b5f60208284031215610b20575f5ffd5b610b2982610991565b9392505050565b5f5f60408385031215610b41575f5ffd5b610b4a83610991565b9150610b5860208401610991565b90509250929050565b600181811c90821680610b7557607f821691505b602082108103610b9357634e487b7160e01b5f52602260045260245ffd5b50919050565b634e487b7160e01b5f52601160045260245ffd5b5f60018201610bbe57610bbe610b99565b5060010190565b8082018082111561027157610271610b99565b634e487b7160e01b5f52602160045260245ffdfea264697066735822122056424bbb183756f9c9a5abfafd5400e19f82560616b7c5462cdce323e5ad2a6364736f6c634300081c0033",
  "linkReferences": {},
  "deployedLinkReferences": {},
  "immutableReferences": {},
  "inputSourceName": "project/contracts/MyToken.sol",
  "buildInfoId": "solc-0_8_28-01d34ec71974b85b621f6925f76f1f48816eb75b"
}