{
  "_format": "hh3-artifact-1",
  "contractName": "TokenTrade",
  "sourceName": "contracts/TokenTrade.sol",
  "abi": [
    {
      "inputs": [
        {
          "internalType": "address",
          "name": "_catToken",
          "type": "address"
        },
        {
          "internalType": "address",
          "name": "_dogToken",
          "type": "address"
        }
      ],
      "stateMutability": "nonpayable",
      "type": "constructor"
    },
    {
      "anonymous": false,
      "inputs": [
        {
          "indexed": true,
          "internalType": "uint256",
          "name": "tradeId",
          "type": "uint256"
        },
        {
          "indexed": true,
          "internalType": "address",
          "name": "seller",
          "type": "address"
        },
        {
          "indexed": true,
          "internalType": "address",
          "name": "buyer",
          "type": "address"
        }
      ],
      "name": "SettleTrade",
      "type": "event"
    },
    {
      "anonymous": false,
      "inputs": [
        {
          "indexed": true,
          "internalType": "uint256",
          "name": "tradeId",
          "type": "uint256"
        },
        {
          "indexed": true,
          "internalType": "address",
          "name": "seller",
          "type": "address"
        },
        {
          "indexed": false,
          "internalType": "address",
          "name": "inputToken",
          "type": "address"
        },
        {
          "indexed": false,
          "internalType": "uint256",
          "name": "inputTokenAmount",
          "type": "uint256"
        },
        {
          "indexed": false,
          "internalType": "uint256",
          "name": "outputTokenAsk",
          "type": "uint256"
        },
        {
          "indexed": false,
          "internalType": "uint256",
          "name": "expiry",
          "type": "uint256"
        }
      ],
      "name": "SetupTrade",
      "type": "event"
    },
    {
      "inputs": [],
      "name": "catToken",
      "outputs": [
        {
          "internalType": "contract IERC20",
          "name": "",
          "type": "address"
        }
      ],
      "stateMutability": "view",
      "type": "function"
    },
    {
      "inputs": [],
      "name": "catTokenFee",
      "outputs": [
        {
          "internalType": "uint256",
          "name": "",
          "type": "uint256"
        }
      ],
      "stateMutability": "view",
      "type": "function"
    },
    {
      "inputs": [],
      "name": "checkExpiry",
      "outputs": [],
      "stateMutability": "nonpayable",
      "type": "function"
    },
    {
      "inputs": [],
      "name": "dogToken",
      "outputs": [
        {
          "internalType": "contract IERC20",
          "name": "",
          "type": "address"
        }
      ],
      "stateMutability": "view",
      "type": "function"
    },
    {
      "inputs": [],
      "name": "dogTokenFee",
      "outputs": [
        {
          "internalType": "uint256",
          "name": "",
          "type": "uint256"
        }
      ],
      "stateMutability": "view",
      "type": "function"
    },
    {
      "inputs": [
        {
          "internalType": "address",
          "name": "seller",
          "type": "address"
        }
      ],
      "name": "getSellerTrades",
      "outputs": [
        {
          "internalType": "uint256[]",
          "name": "",
          "type": "uint256[]"
        }
      ],
      "stateMutability": "view",
      "type": "function"
    },
    {
      "inputs": [],
      "name": "owner",
      "outputs": [
        {
          "internalType": "address",
          "name": "",
          "type": "address"
        }
      ],
      "stateMutability": "view",
      "type": "function"
    },
    {
      "inputs": [
        {
          "internalType": "address",
          "name": "",
          "type": "address"
        },
        {
          "internalType": "uint256",
          "name": "",
          "type": "uint256"
        }
      ],
      "name": "sellerTrades",
      "outputs": [
        {
          "internalType": "uint256",
          "name": "",
          "type": "uint256"
        }
      ],
      "stateMutability": "view",
      "type": "function"
    },
    {
      "inputs": [
        {
          "internalType": "uint256",
          "name": "id",
          "type": "uint256"
        }
      ],
      "name": "settleTrade",
      "outputs": [],
      "stateMutability": "nonpayable",
      "type": "function"
    },
    {
      "inputs": [
        {
          "internalType": "address",
          "name": "inputTokenForSale",
          "type": "address"
        },
        {
          "internalType": "uint256",
          "name": "inputTokenAmount",
          "type": "uint256"
        },
        {
          "internalType": "uint256",
          "name": "outputTokenAsk",
          "type": "uint256"
        },
        {
          "internalType": "uint256",
          "name": "expiry",
          "type": "uint256"
        }
      ],
      "name": "setupTrade",
      "outputs": [],
      "stateMutability": "nonpayable",
      "type": "function"
    },
    {
      "inputs": [],
      "name": "tradeCount",
      "outputs": [
        {
          "internalType": "uint256",
          "name": "",
          "type": "uint256"
        }
      ],
      "stateMutability": "view",
      "type": "function"
    },
    {
      "inputs": [
        {
          "internalType": "uint256",
          "name": "",
          "type": "uint256"
        }
      ],
      "name": "tradeList",
      "outputs": [
        {
          "internalType": "address",
          "name": "seller",
          "type": "address"
        },
        {
          "internalType": "contract IERC20",
          "name": "inputTokenForSale",
          "type": "address"
        },
        {
          "internalType": "uint256",
          "name": "inputTokenAmount",
          "type": "uint256"
        },
        {
          "internalType": "uint256",
          "name": "outputTokenAsk",
          "type": "uint256"
        },
        {
          "internalType": "uint256",
          "name": "expiry",
          "type": "uint256"
        }
      ],
      "stateMutability": "view",
      "type": "function"
    },
    {
      "inputs": [],
      "name": "withdrawFee",
      "outputs": [],
      "stateMutability": "nonpayable",
      "type": "function"
    }
  ],
  "bytecode": "0x60806040525f6006553480156012575f5ffd5b50604051611066380380611066833981016040819052602f916083565b600280546001600160a01b031990811633179091555f80546001600160a01b039485169083161790556001805492909316911617905560af565b80516001600160a01b0381168114607e575f5ffd5b919050565b5f5f604083850312156093575f5ffd5b609a836069565b915060a6602084016069565b90509250929050565b610faa806100bc5f395ff3fe608060405234801561000f575f5ffd5b50600436106100cb575f3560e01c80636b9c1aba116100885780638da5cb5b116100635780638da5cb5b146101fc578063bd55022a1461020f578063d793bc1d14610218578063e941fa781461022b575f5ffd5b80636b9c1aba146101ce57806373422d93146101d75780637e7c8c6e146101ea575f5ffd5b80630b437461146100cf5780631354072b1461014f57806316cbed5b1461016f57806343b502c81461018657806346b207b8146101b15780634f18f54b146101bb575b5f5ffd5b6101176100dd366004610daf565b60056020525f9081526040902080546001820154600283015460038401546004909401546001600160a01b03938416949390921692909185565b604080516001600160a01b039687168152959094166020860152928401919091526060830152608082015260a0015b60405180910390f35b61016261015d366004610de1565b610233565b6040516101469190610e01565b61017860035481565b604051908152602001610146565b600154610199906001600160a01b031681565b6040516001600160a01b039091168152602001610146565b6101b961029c565b005b6101786101c9366004610e43565b6104a3565b61017860045481565b6101b96101e5366004610daf565b6104ce565b5f54610199906001600160a01b031681565b600254610199906001600160a01b031681565b61017860065481565b6101b9610226366004610e6b565b61080a565b6101b9610b38565b6001600160a01b0381165f9081526007602090815260409182902080548351818402810184019094528084526060939283018282801561029057602002820191905f5260205f20905b81548152602001906001019080831161027c575b50505050509050919050565b335f90815260076020526040902080545b801561049f57806102bd81610eb5565b91505060055f8383815481106102d5576102d5610eca565b905f5260205f20015481526020019081526020015f2060040154421061049a575f60055f84848154811061030b5761030b610eca565b905f5260205f20015481526020019081526020015f2090505f6103e882600201546103369190610ede565b600183015460028401549192506001600160a01b03169063a9059cbb903390610360908590610efd565b6040516001600160e01b031960e085901b1681526001600160a01b03909216600483015260248201526044016020604051808303815f875af11580156103a8573d5f5f3e3d5ffd5b505050506040513d601f19601f820116820180604052508101906103cc9190610f16565b5060055f8585815481106103e2576103e2610eca565b5f9182526020808320909101548352820192909252604001812080546001600160a01b031990811682556001808301805490921690915560028201839055600382018390556004909101919091558454859161043d91610f35565b8154811061044d5761044d610eca565b905f5260205f20015484848154811061046857610468610eca565b905f5260205f2001819055508380548061048457610484610f48565b600190038181905f5260205f20015f9055905550505b6102ad565b5050565b6007602052815f5260405f2081815481106104bc575f80fd5b905f5260205f20015f91509150505481565b60065481106105335760405162461bcd60e51b815260206004820152602660248201527f54686520696e707574206964206973206e6f7420696e20746865207472616465604482015265103634b9ba1760d11b60648201526084015b60405180910390fd5b5f81815260056020526040902080546001600160a01b03166105a35760405162461bcd60e51b815260206004820152602360248201527f547261646520616c726561647920736574746c6564206f722063616e63656c6c60448201526232b21760e91b606482015260840161052a565b806004015442106105eb5760405162461bcd60e51b81526020600482015260126024820152712a3930b232903430b99032bc3834b932b21760711b604482015260640161052a565b60018101545f80546001600160a01b0392831692168214610616575f546001600160a01b0316610623565b6001546001600160a01b03165b835460038501546040516323b872dd60e01b81523360048201526001600160a01b03928316602482015260448101919091529192508216906323b872dd906064016020604051808303815f875af1158015610680573d5f5f3e3d5ffd5b505050506040513d601f19601f820116820180604052508101906106a49190610f16565b50600283015460405163a9059cbb60e01b815233600482015260248101919091526001600160a01b0383169063a9059cbb906044016020604051808303815f875af11580156106f5573d5f5f3e3d5ffd5b505050506040513d601f19601f820116820180604052508101906107199190610f16565b505f6103e8846002015461072d9190610ede565b5f5460018601549192506001600160a01b03908116911603610765578060035f82825461075a9190610efd565b9091555061077c9050565b8060045f8282546107769190610efd565b90915550505b83545f86815260056020526040812080546001600160a01b0319908116825560018201805490911690556002810182905560038101829055600401556001600160a01b03166107cb8187610cef565b60405133906001600160a01b0383169088907f80f50525550f3cfe6d84ad9de4a4bc53537d5a3ea720f233a041a396392cc8dd905f90a4505050505050565b5f5484906001600160a01b038083169116148061083457506001546001600160a01b038281169116145b6108955760405162461bcd60e51b815260206004820152602c60248201527f54686520696e70757420746f6b656e206973206e6f7420446f67546f6b656e2060448201526b37b91021b0ba2a37b5b2b71760a11b606482015260840161052a565b5f84116108e45760405162461bcd60e51b815260206004820152601e60248201527f416d6f756e74206d7573742062652067726561746572207468616e20302e0000604482015260640161052a565b5f83116109335760405162461bcd60e51b815260206004820152601b60248201527f41736b206d7573742062652067726561746572207468616e20302e0000000000604482015260640161052a565b4282116109825760405162461bcd60e51b815260206004820152601d60248201527f457870697279206d75737420626520696e20746865206675747572652e000000604482015260640161052a565b600680546040805160a0810182523381526001600160a01b0385811660208084019182528385018b8152606085018b8152608086018b81525f8981526005909452968320955186549086166001600160a01b03199182161787559351600187018054919096169416939093179093559151600284015551600383015591516004909101558254919290610a1483610f5c565b9091555050335f9081526007602090815260408220805460018101825590835290822001829055610a476103e887610ede565b90506001600160a01b0383166323b872dd3330610a64858b610efd565b6040516001600160e01b031960e086901b1681526001600160a01b03938416600482015292909116602483015260448201526064016020604051808303815f875af1158015610ab5573d5f5f3e3d5ffd5b505050506040513d601f19601f82011682018060405250810190610ad99190610f16565b50604080516001600160a01b03891681526020810188905290810186905260608101859052339083907f8ac5564f1e35fccb74e0ba1a1632c0f90aee5426f0765a5523034f23d57811509060800160405180910390a350505050505050565b6002546001600160a01b03163314610b8b5760405162461bcd60e51b81526020600482015260166024820152752cb7ba9030b932903737ba103a34329037bbb732b91760511b604482015260640161052a565b5f6003541180610b9c57505f600454115b610bde5760405162461bcd60e51b81526020600482015260136024820152722737903332b2903a37903bb4ba34323930bb9760691b604482015260640161052a565b60035415610c65575f5460025460035460405163a9059cbb60e01b81526001600160a01b039283166004820152602481019190915291169063a9059cbb906044016020604051808303815f875af1158015610c3b573d5f5f3e3d5ffd5b505050506040513d601f19601f82011682018060405250810190610c5f9190610f16565b505f6003555b60045415610ced576001546002546004805460405163a9059cbb60e01b81526001600160a01b0393841692810192909252602482015291169063a9059cbb906044016020604051808303815f875af1158015610cc3573d5f5f3e3d5ffd5b505050506040513d601f19601f82011682018060405250810190610ce79190610f16565b505f6004555b565b6001600160a01b0382165f908152600760205260408120905b8154811015610da95782828281548110610d2457610d24610eca565b905f5260205f20015403610da15781548290610d4290600190610f35565b81548110610d5257610d52610eca565b905f5260205f200154828281548110610d6d57610d6d610eca565b905f5260205f20018190555081805480610d8957610d89610f48565b600190038181905f5260205f20015f90559055610da9565b600101610d08565b50505050565b5f60208284031215610dbf575f5ffd5b5035919050565b80356001600160a01b0381168114610ddc575f5ffd5b919050565b5f60208284031215610df1575f5ffd5b610dfa82610dc6565b9392505050565b602080825282518282018190525f918401906040840190835b81811015610e38578351835260209384019390920191600101610e1a565b509095945050505050565b5f5f60408385031215610e54575f5ffd5b610e5d83610dc6565b946020939093013593505050565b5f5f5f5f60808587031215610e7e575f5ffd5b610e8785610dc6565b966020860135965060408601359560600135945092505050565b634e487b7160e01b5f52601160045260245ffd5b5f81610ec357610ec3610ea1565b505f190190565b634e487b7160e01b5f52603260045260245ffd5b5f82610ef857634e487b7160e01b5f52601260045260245ffd5b500490565b80820180821115610f1057610f10610ea1565b92915050565b5f60208284031215610f26575f5ffd5b81518015158114610dfa575f5ffd5b81810381811115610f1057610f10610ea1565b634e487b7160e01b5f52603160045260245ffd5b5f60018201610f6d57610f6d610ea1565b506001019056fea264697066735822122042f08117b6aa2b4a6c8b84fc3b4213f46ddf3d834feefc5ef9503d2033d92f2964736f6c634300081c0033",
  "linkReferences": {},
  "deployedLinkReferences": {},
  "immutableReferences": {},
  "inputSourceName": "project/contracts/TokenTrade.sol",
  "buildInfoId": "solc-0_8_28-8e44e49c0303bc337dda4e4f95eb9b4522ba8c9e"
}