{
  "_format": "hh3-artifact-1",
  "contractName": "Tyi77DEX",
  "sourceName": "contracts/Tyi77DEX.sol",
  "abi": [
    {
      "inputs": [
        {
          "internalType": "address",
          "name": "_aToken",
          "type": "address"
        },
        {
          "internalType": "address",
          "name": "_bToken",
          "type": "address"
        },
        {
          "internalType": "uint256",
          "name": "_r",
          "type": "uint256"
        }
      ],
      "stateMutability": "nonpayable",
      "type": "constructor"
    },
    {
      "inputs": [],
      "name": "aToken",
      "outputs": [
        {
          "internalType": "contract IERC20",
          "name": "",
          "type": "address"
        }
      ],
      "stateMutability": "view",
      "type": "function"
    },
    {
      "inputs": [
        {
          "internalType": "uint256",
          "name": "amountA",
          "type": "uint256"
        },
        {
          "internalType": "uint256",
          "name": "amountB",
          "type": "uint256"
        }
      ],
      "name": "addLiquidity",
      "outputs": [],
      "stateMutability": "nonpayable",
      "type": "function"
    },
    {
      "inputs": [],
      "name": "bToken",
      "outputs": [
        {
          "internalType": "contract IERC20",
          "name": "",
          "type": "address"
        }
      ],
      "stateMutability": "view",
      "type": "function"
    },
    {
      "inputs": [],
      "name": "feeA",
      "outputs": [
        {
          "internalType": "uint256",
          "name": "",
          "type": "uint256"
        }
      ],
      "stateMutability": "view",
      "type": "function"
    },
    {
      "inputs": [],
      "name": "feeB",
      "outputs": [
        {
          "internalType": "uint256",
          "name": "",
          "type": "uint256"
        }
      ],
      "stateMutability": "view",
      "type": "function"
    },
    {
      "inputs": [],
      "name": "feeRecipient",
      "outputs": [
        {
          "internalType": "address",
          "name": "",
          "type": "address"
        }
      ],
      "stateMutability": "view",
      "type": "function"
    },
    {
      "inputs": [],
      "name": "getReserves",
      "outputs": [
        {
          "internalType": "uint256",
          "name": "reserveA",
          "type": "uint256"
        },
        {
          "internalType": "uint256",
          "name": "reserveB",
          "type": "uint256"
        }
      ],
      "stateMutability": "view",
      "type": "function"
    },
    {
      "inputs": [],
      "name": "k",
      "outputs": [
        {
          "internalType": "uint256",
          "name": "",
          "type": "uint256"
        }
      ],
      "stateMutability": "view",
      "type": "function"
    },
    {
      "inputs": [],
      "name": "owner",
      "outputs": [
        {
          "internalType": "address",
          "name": "",
          "type": "address"
        }
      ],
      "stateMutability": "view",
      "type": "function"
    },
    {
      "inputs": [],
      "name": "r",
      "outputs": [
        {
          "internalType": "uint256",
          "name": "",
          "type": "uint256"
        }
      ],
      "stateMutability": "view",
      "type": "function"
    },
    {
      "inputs": [
        {
          "internalType": "address",
          "name": "tokenIn",
          "type": "address"
        },
        {
          "internalType": "uint256",
          "name": "amountIn",
          "type": "uint256"
        }
      ],
      "name": "swap",
      "outputs": [],
      "stateMutability": "nonpayable",
      "type": "function"
    },
    {
      "inputs": [],
      "name": "totalA",
      "outputs": [
        {
          "internalType": "uint256",
          "name": "",
          "type": "uint256"
        }
      ],
      "stateMutability": "view",
      "type": "function"
    },
    {
      "inputs": [],
      "name": "totalB",
      "outputs": [
        {
          "internalType": "uint256",
          "name": "",
          "type": "uint256"
        }
      ],
      "stateMutability": "view",
      "type": "function"
    },
    {
      "inputs": [],
      "name": "withdrawFee",
      "outputs": [],
      "stateMutability": "nonpayable",
      "type": "function"
    }
  ],
  "bytecode": "0x608060405234801561000f575f5ffd5b50604051610aaf380380610aaf83398101604081905261002e916100b6565b5f80546001600160a01b039485166001600160a01b031991821617825560018054949095169381169390931790935560028390556003839055600455600582905560068054909116733ad64abb43d793025a2f2bd9d615fa1447008bfd17905560078190556008556100ef565b80516001600160a01b03811681146100b1575f5ffd5b919050565b5f5f5f606084860312156100c8575f5ffd5b6100d18461009b565b92506100df6020850161009b565b9150604084015190509250925092565b6109b3806100fc5f395ff3fe608060405234801561000f575f5ffd5b50600436106100e5575f3560e01c80639cd441da11610088578063b629640b11610063578063b629640b146101b1578063d004f0f7146101ba578063e941fa78146101cd578063f606abe3146101d5575f5ffd5b80639cd441da14610181578063a0c1f15e14610196578063b4f40c61146101a8575f5ffd5b8063193491b5116100c3578063193491b51461014b57806346904840146101545780636c8ae38c146101655780638da5cb5b1461016e575f5ffd5b80630902f1ac146100e957806315c383db14610109578063180f584214610120575b5f5ffd5b600254600354604080519283526020830191909152015b60405180910390f35b61011260075481565b604051908152602001610100565b600154610133906001600160a01b031681565b6040516001600160a01b039091168152602001610100565b61011260035481565b6006546001600160a01b0316610133565b61011260045481565b600654610133906001600160a01b031681565b61019461018f366004610868565b6101de565b005b5f54610133906001600160a01b031681565b61011260055481565b61011260025481565b6101946101c8366004610888565b610317565b610194610720565b61011260085481565b5f546040516323b872dd60e01b81526001600160a01b03909116906323b872dd90610211903390309087906004016108bd565b6020604051808303815f875af115801561022d573d5f5f3e3d5ffd5b505050506040513d601f19601f8201168201806040525081019061025191906108e1565b508160025f828254610263919061091b565b90915550506001546040516323b872dd60e01b81526001600160a01b03909116906323b872dd9061029c903390309086906004016108bd565b6020604051808303815f875af11580156102b8573d5f5f3e3d5ffd5b505050506040513d601f19601f820116820180604052508101906102dc91906108e1565b508060035f8282546102ee919061091b565b90915550506003546004546103039190610934565b600254610310919061091b565b6005555050565b5f5482906001600160a01b0390811690821603610503576004545f906103e8610342856103e7610934565b61034c919061094b565b610356919061094b565b90506003548111156103af5760405162461bcd60e51b815260206004820152601f60248201527f4220746f6b656e206c6971756964697479206973206e6f7420656e6f7567680060448201526064015b60405180910390fd5b5f546040516323b872dd60e01b81526001600160a01b03909116906323b872dd906103e2903390309088906004016108bd565b6020604051808303815f875af11580156103fe573d5f5f3e3d5ffd5b505050506040513d601f19601f8201168201806040525081019061042291906108e1565b506103e8610432846103e7610934565b61043c919061094b565b60025f82825461044c919061091b565b9091555061045e90506103e88461094b565b60075f82825461046e919061091b565b909155505060015460405163a9059cbb60e01b8152336004820152602481018390526001600160a01b039091169063a9059cbb906044016020604051808303815f875af11580156104c1573d5f5f3e3d5ffd5b505050506040513d601f19601f820116820180604052508101906104e591906108e1565b508060035f8282546104f7919061096a565b9091555061071b915050565b6001546001600160a01b03908116908216036106dd576004545f906103e861052d856103e7610934565b610537919061094b565b6105419190610934565b90506002548111156105955760405162461bcd60e51b815260206004820152601f60248201527f4120746f6b656e206c6971756964697479206973206e6f7420656e6f7567680060448201526064016103a6565b6001546040516323b872dd60e01b81526001600160a01b03909116906323b872dd906105c9903390309088906004016108bd565b6020604051808303815f875af11580156105e5573d5f5f3e3d5ffd5b505050506040513d601f19601f8201168201806040525081019061060991906108e1565b506103e8610619846103e7610934565b610623919061094b565b60035f828254610633919061091b565b9091555061064590506103e88461094b565b60085f828254610655919061091b565b90915550505f5460405163a9059cbb60e01b8152336004820152602481018390526001600160a01b039091169063a9059cbb906044016020604051808303815f875af11580156106a7573d5f5f3e3d5ffd5b505050506040513d601f19601f820116820180604052508101906106cb91906108e1565b508060025f8282546104f7919061096a565b60405162461bcd60e51b815260206004820152601360248201527257726f6e6720546f6b656e204164647265737360681b60448201526064016103a6565b505050565b6006546001600160a01b031633146107715760405162461bcd60e51b81526020600482015260146024820152732cb7ba93b932903737ba1030b71037bbb732b91760611b60448201526064016103a6565b5f5460075460405163a9059cbb60e01b815233600482015260248101919091526001600160a01b039091169063a9059cbb906044016020604051808303815f875af11580156107c2573d5f5f3e3d5ffd5b505050506040513d601f19601f820116820180604052508101906107e691906108e1565b505f60075560015460085460405163a9059cbb60e01b815233600482015260248101919091526001600160a01b039091169063a9059cbb906044016020604051808303815f875af115801561083d573d5f5f3e3d5ffd5b505050506040513d601f19601f8201168201806040525081019061086191906108e1565b505f600855565b5f5f60408385031215610879575f5ffd5b50508035926020909101359150565b5f5f60408385031215610899575f5ffd5b82356001600160a01b03811681146108af575f5ffd5b946020939093013593505050565b6001600160a01b039384168152919092166020820152604081019190915260600190565b5f602082840312156108f1575f5ffd5b81518015158114610900575f5ffd5b9392505050565b634e487b7160e01b5f52601160045260245ffd5b8082018082111561092e5761092e610907565b92915050565b808202811582820484141761092e5761092e610907565b5f8261096557634e487b7160e01b5f52601260045260245ffd5b500490565b8181038181111561092e5761092e61090756fea2646970667358221220c37289895b49b011e9883b5c7ca1aab96d01a33e3b0f504769af80954536ea2864736f6c634300081c0033",
  "linkReferences": {},
  "deployedLinkReferences": {},
  "immutableReferences": {},
  "inputSourceName": "project/contracts/Tyi77DEX.sol",
  "buildInfoId": "solc-0_8_28-d83bff8f34461a27cfa3bc6c8dfefb81259cd9d2"
}